:100000000C94D9010C94F6010C94F6010C94F601B1
:100010000C94F6010C94F6010C940E020C94F6016B
:100020000C94F6010C94F6010C94F6010C94F60174
:100030000C94F6010C94F6010C94F6010C94F60164
:100040000C94F6010C94F6010C94F6010C94F60154
:100050000C94F601485454502F312E302034303156
:1000600020556E617574686F72697A65640D0A4314
:100070006F6E74656E742D547970653A207465786E
:10008000742F68746D6C0D0A0D0A3C68313E343073
:100090003120556E617574686F72697A65643C2FA2
:1000A00068313E003C68313E323030204F4B3C2FAF
:1000B00068313E003C21444F4354595045206874F8
:1000C0006D6C3E0A203C68746D6C3E0A203C626F89
:1000D00064793E0A203C703E57656C636F6D652005
:1000E000746F20456E657267794D65746572207610
:1000F000302E313C2F703E0A203C703E53656C65BB
:1001000063742077686174206461746120746F2067
:10011000736565206F6E20746865206C6566743C3D
:100120002F703E0A203C703E286329323031332044
:100130004D61617274656E2076616E20496E6765EF
:100140006E0A203C2F626F64793E0A203C2F68744F
:100150006D6C3E0A003C2F7072653E0A3C2F626F48
:1001600064793E0A3C2F68746D6C3E003A000A23A5
:10017000003C21444F43545950452068746D6C3EF7
:100180000A3C68746D6C3E0A3C626F64793E0A3CBE
:100190007072653E0A003C2F7072653E0A3C2F6209
:1001A0006F64793E0A3C2F68746D6C3E003C2144BC
:1001B0004F43545950452068746D6C3E0A3C687436
:1001C0006D6C3E0A3C626F64793E0A3C7072653E1B
:1001D0000A003C21444F43545950452068746D6CCB
:1001E0003E0A3C68746D6C3E0A3C626F64793E0A5C
:1001F0003C6120687265663D22776C636D2E687481
:100200006D22207461726765743D2264617461229D
:100210003E57656C636F6D653C2F613E3C62723E7C
:100220000A3C6120687265663D226E6F772E6874A5
:100230006D22207461726765743D2264617461226D
:100240003E43757272656E743C2F613E0A3C627269
:100250003E0A3C6120687265663D226D696E302EF3
:1002600068746D22207461726765743D22646174E4
:1002700061223E4D696E757465733C2F613E0A3C88
:1002800062723E0A3C6120687265663D226D696E4D
:10029000312E68746D22207461726765743D22642A
:1002A000617461223E4D696E757465733C2F613EC9
:1002B0000A3C696672616D65207372633D22776CDA
:1002C000636D2E68746D22206E616D653D226461E0
:1002D000746122207374796C653D22626F7264656B
:1002E000722D636F6C6F723A202330303030464687
:1002F0003B20626F726465723A20313B20706F73ED
:100300006974696F6E3A6162736F6C7574653B20D6
:10031000746F703A31303B206C6566743A31353019
:1003200070783B2072696768743A303B20626F7462
:10033000746F6D3A31303B2077696474683A3630B7
:100340003070783B206865696768743A39352522D2
:100350003E3C2F696672616D653E0A3C2F626F6498
:10036000793E0A3C2F68746D6C3E00485454502FFF
:10037000312E3020323030204F4B0D0A436F6E74D7
:10038000656E742D547970653A20746578742F68A1
:10039000746D6C0D0A507261676D613A206E6F2D3D
:1003A00063616368650D0A0D0A0000010800060418
:1003B000000111241FBECFE5D4E0DEBFCDBF10E0A9
:1003C000A0E6B0E0E0E3F5E102C005900D92A03AAE
:1003D000B107D9F713E0A0EAB0E001C01D92A63F33
:1003E000B107E1F70E94A0030C94960A0C94000058
:1003F00080E487B910BE87EA86B9369A08958EB52B
:1004000088608EBD89B7806189BF789480E89EE35B
:100410009BBD8ABD8EB581608EBD08951F920F92DF
:100420000FB60F9211242F933F934F935F936F93C7
:100430007F938F939F93AF93BF93EF93FF9380919D
:10044000A0009091A100A091A200B091A3000196FC
:10045000A11DB11D8093A0009093A100A093A200C4
:10046000B093A3008091AA009091AB00A091AC0042
:10047000B091AD000196A11DB11D8093AA0090938B
:10048000AB00A093AC00B093AD0084B195B123E074
:100490008834920718F41092A4002CC08091A40014
:1004A000882341F58091A5009091A6000196909334
:1004B000A6008093A5002091AA003091AB00409146
:1004C000AC005091AD0060E87EEE86E390E00E94C3
:1004D000210A220F331F3093A9002093A800109205
:1004E000AA001092AB001092AC001092AD0081E017
:1004F0008093A4008091A0009091A100A091A200FF
:10050000B091A300803727E1920720E0A20720E006
:10051000B20708F1E091A700F0E08091A50090916A
:10052000A600E358FC4F80838091A7008F5F8093E3
:10053000A7008091A700883710F01092A7001092B2
:10054000A0001092A1001092A2001092A30010929D
:10055000A6001092A500FF91EF91BF91AF919F91DE
:100560008F917F916F915F914F913F912F910F905C
:100570000FBE0F901F9018958EEA90E060E070E03B
:100580004BE653E00E9426080895CF93DF93EC01D9
:100590000E94BC02BC01CE0142ED51E00E9426083F
:1005A000DF91CF910895CF92DF92EF92FF920F9358
:1005B0001F93DF93CF93CDB7DEB72A970FB6F8948A
:1005C000DEBF0FBECDBF7C010E94BC02BC01C701D3
:1005D0004DEA51E00E9426086C018091A80090919C
:1005E000A9008E010F5F1F4FB8014AE050E00E9442
:1005F000510AC701B601A8010E944608BC01C70103
:1006000046E951E00E9426082A960FB6F894DEBF0C
:100610000FBECDBFCF91DF911F910F91FF90EF9053
:10062000DF90CF9008956F927F928F929F92BF92AA
:10063000CF92DF92EF92FF920F931F93DF93CF93AE
:10064000CDB7DEB72A970FB6F894DEBF0FBECDBF89
:100650008C01E62E0E94BC029C01C801B90141E751
:1006600051E00E942608BC018CE3E89EB02C1124C6
:100670008E2D992787FD909501962CE330E0829F7F
:100680003001839F700C929F700C11247E0108949E
:10069000E11CF11C29C0C8014EE651E00E94260869
:1006A0004C01C601B7014AE050E00E94510AC8015E
:1006B000B401A7010E944608BC01C8014CE651E004
:1006C0000E9426084C01F601E358FC4F808190E01F
:1006D000B7014AE050E00E94510AC801B401A701E5
:1006E0000E944608BC01B394CB2CDD24C614D70469
:1006F00094F2C80145E551E00E9426082A960FB6FB
:10070000F894DEBF0FBECDBFCF91DF911F910F9147
:10071000FF90EF90DF90CF90BF909F908F907F9051
:100720006F900895CF93DF93EC010E94BC02BC014F
:10073000CE0144EB50E00E942608DF91CF9108954E
:10074000CF93DF930E94F8018FEF91EEA4E08150E8
:100750009040A040E1F700C000000E94FF0183E943
:1007600090E00E94110582E00E940B0580E08A95CE
:10077000F1F784E166E774E00E94E60483E990E023
:1007800069E970E00E94130980E590E00E94240965
:100790008CEB92E06EEA70E00E942306BC018EEAC8
:1007A00090E00E947F09EC01009791F3BC01625533
:1007B0007F4F80E690E044E050E00E94430A0097BB
:1007C00041F00E94BC02BC018EEA90E044EA50E095
:1007D0004EC0CE54DF4F85E690E0BE0142E050E0CF
:1007E0000E94430A009729F48EEA90E00E94C50215
:1007F00040C088E690E0BE0148E050E00E94430A15
:10080000009729F48EEA90E00E94D30232C081E77B
:1008100090E0BE0149E050E00E94430A009721F4B5
:100820008EEA90E060E00CC08BE790E0BE0149E00A
:1008300050E00E94430A009731F48EEA90E061E0B4
:100840000E94130316C085E890E0BE0149E050E025
:100850000E94430A009729F48EEA90E00E949203D6
:1008600008C08EEA90E060E070E044E550E00E944D
:100870002608BC018EEA90E00E94620989CFC498E4
:10088000962F9F71982B9FB9779BFECF1FB8779BB0
:10089000FECF67FF03C01FB8779BFECFC49A8FB10E
:1008A0000895C4986F71682B6FB9779BFECF4FB9CD
:1008B000779BFECFC49A0895C4982AE32FB9779BFB
:1008C000FECFFB019C0107C0215030401FB8779B31
:1008D000FECF4FB1419321153105B1F7860F971F18
:1008E000FC011082C49A0895FB01C4982AE72FB92D
:1008F000779BFECF05C0019721912FB9779BFECF43
:100900000097C9F7C49A08951F93CF93DF93182FC8
:10091000C82FD0E0C076D07020916D0330E0C217B0
:10092000D30791F080EA6FE143E00E945104AE01E9
:1009300085E0559547958A95E1F780E86FE10E943B
:100940005104107610936D03DF91CF911F9108959C
:10095000DF93CF930F92CDB7DEB7682F69830E94E4
:10096000840480E069810E943F040F90CF91DF9161
:1009700008951F93DF93CF930F92CDB7DEB7182F53
:1009800069830E94840480E4612F49810E9451049C
:100990000F90CF91DF911F910895682F84ED0E94F1
:1009A000B90482ED61E00E94B90488E28A95F1F70A
:1009B0008AEE0E94A80480FDFBCF82ED60E00E94D9
:1009C000B90489ED0E94A80490E008951F93DF9375
:1009D000CF930F92CDB7DEB7982F162F84ED692FE6
:1009E00079830E94B90486ED612F0E94B90487EDD6
:1009F0007981672F0E94B90418E203C0812F8A957C
:100A0000F1F78AEE0E94A80480FDF8CF0F90CF91F5
:100A1000DF911F910895682F677085E70E94B904E0
:100A20000895CF93DF93EC01BC9AC49A87B3806A90
:100A300087BBBE9AC59AC79A80E58DB9709A8FEF29
:100A400060E04FEF0E94510480E090E00197F1F7E1
:100A500010926C0310926B0388E060E00E94B9046E
:100A600089E060E00E94B9048CE060E00E94B90473
:100A70008DE060E00E94B9048AE06FEF0E94B90443
:100A80008BE069E10E94B90484E060E00E94B9044F
:100A900085E06AE10E94B90486E06FEF0E94B90424
:100AA00087E06FE10E94B90488E360EB0E94B9041B
:100AB00088E26FE30E94B90489E260E30E94B9040E
:100AC00080E369EF0E94B90481E367EF0E94B904F3
:100AD00080EC6DE00E94B90481EC60E00E94B904F2
:100AE00080E862EC42E30E94510486EC62E10E94DD
:100AF000B90487EC6CE00E94B90484EC62E10E94C6
:100B0000B9048AEC6CED0E94B9048BEC65E00E949C
:100B1000B90484EE68810E94B90485EE69810E945F
:100B2000B90482EE6A810E94B90483EE6B810E944F
:100B3000B90480EE6C810E94B90481EE6D810E943F
:100B4000B90480E160E071E00E94E6048FE10E9458
:100B5000840480E86BE140EC0E94510480E86FE17E
:100B600044E00E945104DF91CF91089582E70E94F2
:100B7000A804863008F08F5F089588E30E94A804D7
:100B8000682F616088E30E94B904089588E30E9499
:100B9000A804682F6E7F88E30E94B904089581E15C
:100BA0000E94CD0421E0009709F420E0822F0895EF
:100BB0000F931F93CF93DF93EC018B010FC08CE158
:100BC0000E94A80481FF0AC080E86FE140E80E940B
:100BD000510480EA6FE140E80E94510480E06FE137
:100BE0000E943F0483FDEBCF82E060E00E94B904E5
:100BF00083E06AE10E94B90486E06C2F0E94B90488
:100C00009E012050364E87E0632F0E94B9048AE788
:100C100060E040E00E945104CE01B8010E947404DB
:100C200080E86FE148E00E945104DF91CF911F916D
:100C30000F91089589E30E94A80491E0882309F4A4
:100C400090E0892F08959F92AF92BF92CF92DF924A
:100C5000EF92FF920F931F93CF93DF936C015B0191
:100C600089E30E94A804882309F46EC0C0916B0335
:100C7000D0916C0380E06C2F0E94B9046D2F772710
:100C800067FD7A9581E00E94B9048AE360E00E94E2
:100C90003F04082F8AE360E00E943F04382F20E0E1
:100CA00010E0022B132B10936C0300936B038AE369
:100CB00060E00E943F04C82F8AE360E00E943F0486
:100CC000982E8AE360E00E943F04E82EFF248AE326
:100CD00060E00E943F04382F20E0E22AF32AE7FE7A
:100CE00012C0D0E0392D20E0C22BD32B0894C108CC
:100CF000D1082497CC16DD0608F4E601CE01B50133
:100D00000E945C0402C0C0E0D0E08AE10130180714
:100D10003CF08CE06FEF0E94B9048DE069E10CC0FB
:100D2000602F61508CE00E94B90401501040612F87
:100D3000772767FD7A958DE00E94B90480E86EE11F
:100D400040E40E94510402C0C0E0D0E0CE01DF9137
:100D5000CF911F910F91FF90EF90DF90CF90BF90B8
:100D6000AF909F900895CF92DF92EF92FF920F93F2
:100D70001F93CF93DF936C01413041F4CB0108976F
:100D8000A0E0B0E04196A11DB11D0DC0423041F47C
:100D9000CB010897A0E0B0E00696A11DB11D03C0ED
:100DA00080E090E0DC01EB01F60116C0E080FF245A
:100DB00000E010E0102F0F2DFE2CEE24218130E0FA
:100DC00040E050E0E22AF32A042B152B8E0D9F1DE4
:100DD000A01FB11F32962297C230D10538F7FB0110
:100DE000EE7FEC0DFD1D60FF0FC0208130E040E084
:100DF00050E0542F432F322F222702C0A070B07032
:100E0000820F931FA41FB51F9D014427552721154D
:100E100031054105510591F79C0120953095C90197
:100E2000DF91CF911F910F91FF90EF90DF90CF90C6
:100E30000895009741F0A7E7B3E0FC0186E0019038
:100E40000D928150E1F70895DC015A96862F972F75
:100E5000FC0180E02D919191291729F48F5F843056
:100E6000C9F781E0089580E00895FC0169327105B9
:100E700098F08485883081F48585863069F4B6964B
:100E8000A3E7B3E091918D91981741F483E0A737E0
:100E9000B807C1F781E0089580E0089580E00895E3
:100EA000FC016A327105B0F08485883099F485853B
:100EB000882381F48685853469F47E96A3E7B3E0C0
:100EC00091918D91981741F483E0A737B807C1F746
:100ED00081E0089580E0089580E00895E82FF92FDB
:100EE000A7E7B3E0868181938D91858383E0AD3759
:100EF000B807C1F70895CF93DF93EC01188E198ED0
:100F000080E48C8B1D8A8E8BCE010E9664E170E09E
:100F100040E00E94B306988F898FDF91CF910895AA
:100F2000A3E7B3E0FC017A96208124832D912193DD
:100F300023E0A737B207C1F70E947B070895FC01A1
:100F4000BA9684E09291690F711D94816483442361
:100F500011F0908301C01082815019F0672F77271C
:100F6000F1CF0895CF93DF93EC018CA19AA19CA3BC
:100F70008AA38DA19BA19DA38BA3CE010E949F0755
:100F80001AAA1BAA80E58EA7DF91CF910895CF936F
:100F9000DF93EC010E946E071C8A82E08D8BA7E72D
:100FA000B3E0FE017696808182878D91819383E004
:100FB000AD37B807C1F7A3E7B3E0FE017C968081A7
:100FC00082878D91819383E0A737B807C1F78AE2C2
:100FD00090E0BE010E94D805DF91CF9108950F9354
:100FE0001F93CF93DF93EC018B010E946E07CE011C
:100FF0000E9490071AA28CA1883F18F08DA18F5FE4
:101000008DA38CA1885F8CA3C801BE010E94D80566
:10101000DF91CF911F910F910895FC01218930E05C
:10102000908980E0282B392B86A582958F7090E0DF
:10103000880F991F880F991F281B390B24513040A6
:1010400037FF02C020E030E0C9010895DB01D696E9
:10105000A80FB91F03C0ED936F5F7F4FFA014F5F79
:101060005F4FE491EE23B9F7CB010895DA01FB015C
:10107000F696E80FF91F822F03C09D91919381503E
:101080008823D9F7620F711DCB010895DA010D9005
:101090000020E9F79D0121503040241B350B0E94B0
:1010A000360808950F931F93DF93CF9300D00F92CC
:1010B000CDB7DEB78C014B8369837A830E946E07BC
:1010C0004B81842F8061F80187A769817A81443040
:1010D00029F06115710511F461E070E0C80141E08B
:1010E0000E94B207F801108A88E2818BC8010E9431
:1010F000900784E0F80180AB11AAC8014A966CE120
:1011000070E042E00E94B306F80192AB83AB86E345
:1011100090E0B8010E94D8050F900F900F90CF91EA
:10112000DF911F910F9108950F931F93CF93DF933A
:10113000EC018B01CB018896988B898BCE010E94A4
:101140007B071AAA1BAAB801645E7F4FCE014A969C
:1011500042E00E94B3069AAB8BABC801C696BE01B3
:101160000E94D805DF91CF911F910F910895CF92E2
:10117000DF92EF92FF920F931F93DF93CF9300D0F4
:10118000CDB7DEB76C01F42EE52E69837A830E9419
:101190006E0769817A81062F172F0D3D110510F01A
:1011A0000CED10E0F601108AC8014C96818BC60147
:1011B0000E949007F60182A184A383A185A3E2A2E5
:1011C000F3A216A2C801089687A310A611A6B8011B
:1011D000605F7F4FC6014A9641E00E94B306F60168
:1011E00090A781A7C8018A96B6010E94D8050F90E2
:1011F0000F90CF91DF911F910F91FF90EF90DF90B3
:10120000CF900895E62FF72FDC019A9650E003C0A7
:1012100061916D935F5F5417D8F3642F70E0A9015B
:101220000E94B70808956115710549F0DB01E3E7F5
:10123000F3E02D91219323E0E737F207D1F70097F0
:1012400011F00E94190708959093700380939D00F8
:101250000895CF93DF93EC010E946E07188A8CE209
:10126000898BCE010E94900782E18FA7CE0161E0B9
:1012700070E040E00E94B2071EA21FA280919E0073
:1012800088A719A68D5F80939E0082E08EAB84E0D4
:101290008FAB85E088AF19AE80E68EA78AE088AB79
:1012A00019AACE014A9660E270E042E00E94B306BD
:1012B0009AAB8BAB8AE390E0BE010E94D805DF9128
:1012C000CF9108950F931F93CF93DF93EC018B0180
:1012D000609171037091720340E00E94520889E1AD
:1012E0008FA7CE01B8010E949408DF91CF911F9182
:1012F0000F91089590936F0380936E030895FF926A
:101300000F931F93CF93DF93EC018B010E9435075E
:10131000882341F08D89813009F055C0CE010E94AB
:10132000C70751C0CE01B8010E945007882309F4B5
:101330004AC08F89813089F49AA1983071F4E09184
:101340006E03F0916F03309719F0CE014A9609951C
:10135000CE01B8010E94EF0736C08630A1F59CA1EE
:1013600080917003981779F59DA180919D00981741
:1013700051F5FFA4F1FE04C0CE010E94290923C04B
:10138000F4FE21C0CE010E940D0890937203809359
:101390007103009749F4F0FE16C0CE0160E070E0E2
:1013A00040E00E9452080FC02EA522952F7030E019
:1013B000220F331F220F331F2E5D3F4F0850104066
:1013C0000217130710F420E030E0C901DF91CF913C
:1013D0001F910F91FF9008958CB18093F503809138
:1013E000F503809588BB089587E689B910BC88E924
:1013F0008AB908955D9BFECF8CB908955F9BFECF9F
:101400008CB108951F93CF93DF93EC0110E007C0D8
:101410008C0F9D1FFC0180810E94FA091F5F812FA4
:1014200090E0AC2FBD2FFD0101900020E9F731972E
:10143000EA1BFB0B8E179F0758F3DF91CF911F918B
:101440000895A1E21A2EAA1BBB1BFD010DC0AA1F05
:10145000BB1FEE1FFF1FA217B307E407F50720F01D
:10146000A21BB30BE40BF50B661F771F881F991F98
:101470001A9469F760957095809590959B01AC01E1
:10148000BD01CF010895FB01DC014150504030F017
:101490008D910190801919F40020B9F7881B990BE0
:1014A0000895FB019F01E8944230C4F04532B4F442
:1014B0004A3029F497FB1EF4909581959F4F642F35
:1014C00077270E94820A805D8A330CF0895D8193C0
:1014D000CB010097A1F716F45DE251931082C90188
:1014E0000C94720ADC01FC01672F71917723E1F7FC
:1014F000329704C07C916D9370836291AE17BF07E1
:10150000C8F30895AA1BBB1B51E107C0AA1FBB1F4C
:10151000A617B70710F0A61BB70B881F991F5A957F
:10152000A9F780959095BC01CD010895F894FFCF5F
:1015300047455420002F20002F6E6F772E68746D62
:10154000002F6D696E302E68746D002F6D696E31DD
:101550002E68746D002F776C636D2E68746D00AB10
:10156000AA2A40545558100029C0A80263500A0006
:00000001FF
